:100000000C9463010C9480010C9480010C94800189
:100010000C9480010C9480010C9480010C9480015C
:100020000C9480010C9480010C9480010C9480014C
:100030000C9480010C9480010C94B0050C94800108
:100040000C94FE050C9480010C9480010C948001AA
:100050000C9480010C9480010C9480010C9480011C
:100060000C9480010C9480010C9480010C9480010C
:100070000C9480010C9480010C9480010C948001FC
:100080000C9480010C9480010C9480010C948001EC
:100090000C9480010C9480010C9480010C948001DC
:1000A0000C9480010C9480010C9480010C948001CC
:1000B0000C9480010C9480010C9480010C94210418
:1000C0000C9480010C9480010C9480010C948001AC
:1000D0000C9480010C9480010C9480010C9480019C
:1000E0000C9480010C9480010C9480010C9480018C
:1000F0000C9480010C9480010C9480010C9480017C
:100100000C9480010C9480010C9480010C9480016B
:100110000C9480010C9480010C9480010C9480015B
:100120000C9480010C9480010C9480010C9480014B
:100130000C9480010C9480010C9480010C9480013B
:100140000C9480010C9480010C9480010C9480012B
:100150000C9480010C9480010C9480010C9480011B
:100160000C94D5030C94FB030C9480010C94800137
:100170000C9480010C948001252538340D0A00254B
:1001800025300D0A00253032783A253034780D0AB2
:10019000002125783A25303278253032780025251F
:1001A00025780D0A002125643A253034780D0A009F
:1001B000496E6974204144433B20763D25780A000E
:1001C00057616B65204144430A00536C656570209C
:1001D0004144430A005043486967683A2025780A39
:1001E0000050434C6F77203A2025780A0021773A57
:1001F000300D0A00252525580D0A0021633A256493
:100200000D0A0021733A25780D0A0020453A257819
:100210000D0A0020423A2530366C7800214B3A41D5
:100220003A2530366C7800216B3A25782C202578D9
:100230000D0A00762E202564204F4B0A005374616E
:100240007274204144433A005541525420496E692A
:1002500074204F4B2E0A002125583A25583A25582C
:100260000D0A00252525580D0A004A616E203238F6
:1002700020323031372031353A34343A3531204369
:1002800052433A2025780D0A007665723A20302EC6
:10029000352048773A202564202D20004E6F646178
:1002A000204E4F44413644485420002530327825B2
:1002B0003032783A25780D0A002A25783A253032EE
:1002C00078253032780011241FBECFEFCDBFD7E2A2
:1002D000DEBF10E2A0E0B0E2E6E3F9E202C0059082
:1002E0000D92AE3CB107D9F722E2AEECB0E201C00C
:1002F0001D92A930B207E1F70E94860C0C94991464
:100300000C94000086ED90E20C94AE04682F86ED0C
:1003100090E20C947404836098ED94BF8093800005
:100320008091820080FDFCCF0895E0E8F0E08081BC
:100330008C7F816098ED94BF808308951F93CF9345
:10034000DF9300D0CDB7DEB7182F2CE932E03F9312
:100350002F9369837A830E9440101F921F9389E82C
:1003600092E09F938F930E9440107A817F936981DE
:100370006F938AE692E09F938F930E944010CDBFC7
:10038000DEBF0F900F90DF91CF911F91089561E034
:1003900080E09AE00E945C05E0EAF0E08281816002
:1003A000828366E080E09AE00E941C05E0E6F6E0C9
:1003B00088E08183858384E082830895FF920F9390
:1003C0001F93CF93DF938C01C0E0D0E094E0F92E2F
:1003D00086ED90E20E949E04882319F1FF2009F126
:1003E00084E0CC0FDD1F8A95E1F7FA9486ED90E268
:1003F0000E94AE0490ED980F9A3010F4E0970CC074
:100400009FEB980F963010F4E79706C09FE9980F7E
:10041000963028F4C755D109C80FD11DD9CF81E036
:1004200001C080E0F801C083D183F11081E0DF9149
:10043000CF911F910F91FF900895CF93DF93CDB788
:10044000DEB72697CDBFDEBF8FEF9FEF8D839E83F4
:1004500086ED90E20E949E04811102C080E84AC0AD
:10046000CE0105960E94DE01882311F081E842C08A
:1004700086ED90E20E949E04882381F386ED90E24F
:100480000E94AE04803491F7CE0103960E94DE01F3
:100490008111ECCF86ED90E20E94AE048823F1F248
:1004A00086ED90E20E94AE048A3301F7CE010196F8
:1004B0000E94DE018111DACF8D819E81811522E0BB
:1004C0009207A8F46B817C819B01280F391F498119
:1004D0005A81240F351F232B61F42091CF0127FD72
:1004E000FCCF880F991F0E94501280E003C084E85F
:1004F00001C082E82696CDBFDEBFDF91CF9108957F
:10050000EF92FF920F931F93CF93DF9300D0CDB75D
:10051000DEB719821A8286ED90E20E949E0488233B
:1005200019F000E010E002C000E810E0CE010196F2
:100530000E94DE01882311F001E810E0E980FA80D2
:10054000E11482E0F80620F40115110581F002C0E3
:1005500004E810E01F930F9383E692E09F938F933C
:100560000E9440100F900F900F900F901DC080912F
:10057000CF0187FDFCCFC701880F991F0E944B1246
:100580009C012E0D3F1D3195219531093F932F93ED
:100590009F938F93FF92EF9287E592E09F938F93C3
:1005A0000E944010CDBFDEBF0F900F90DF91CF9122
:1005B0001F910F91FF90EF900895CF9386ED90E2F9
:1005C0000E949E04811102C080E81DC086ED90E269
:1005D0000E94AE04C0EDC80FCA3060F09FEB980FC8
:1005E000973010F4C9EC05C09FE9980F973050F48C
:1005F000C9EAC80F86ED90E20E949E04882321F389
:100600008C2F01C081E8CF910895FF920F931F9323
:10061000CF93DF9300D000D0CDB7DEB78C0186ED4D
:1006200090E20E949E04811102C080E838C086EDED
:1006300090E20E94AE0440EDF42EF80E85E08F1596
:1006400068F186ED90E20E949E04882371F386EDA6
:1006500090E20E94AE04803411F081E820C0CE0107
:1006600003960E94DE018111F8CF86ED90E20E9490
:100670009E048823D1F286ED90E20E94AE048A3374
:1006800061F7CE0101960E94DE018111E6CF2B8138
:100690003C81F801208331838F2D01C084E82496AA
:1006A000CDBFDEBFDF91CF911F910F91FF900895D5
:1006B000CF92DF92EF92FF920F931F93CF93DF932E
:1006C000CDB7DEB7EF97CDBFDEBF3091930020915D
:1006D000920090919100809190001F923F931F9201
:1006E0002F931F929F931F928F938FE090E29F937F
:1006F0008F930E942C10809194001F928F9380E31F
:1007000090E29F938F930E942C108CE390E29F9332
:100710008F930E942C10CE0101960E940B0B8E012C
:10072000075F1F4F6E018FE0C80ED11CCDBFDEBF2B
:1007300056EAE52E50E2F52EF80181918F011F92C5
:100740008F93FF92EF920E942C100F900F900F90BA
:100750000F900C151D0581F72B899C8989891F92A3
:100760002F931F929F931F928F9388E490E29F9301
:100770008F930E942C109D898E891F929F931F92A8
:100780008F9381E690E29F938F930E942C10CDBFB0
:10079000DEBFEF96CDBFDEBFDF91CF911F910F91EE
:1007A000FF90EF90DF90CF9008951F920F920FB6B9
:1007B0000F9211242F933F934F935F936F937F93E7
:1007C0008F939F93AF93BF93EF93FF9386ED90E248
:1007D0000E94BE04FF91EF91BF91AF919F918F91C5
:1007E0007F916F915F914F913F912F910F900FBE2D
:1007F0000F901F9018951F920F920FB60F92112411
:100800002F933F934F935F936F937F938F939F9318
:10081000AF93BF93EF93FF9386ED90E20E94E404C1
:10082000FF91EF91BF91AF919F918F917F916F91C8
:100830005F914F913F912F910F900FBE0F901F909E
:1008400018951F920F920FB60F9211242F933F937A
:100850004F935F936F937F938F939F93AF93BF93C8
:10086000EF93FF9380916E21882331F080916E2168
:10087000815080936E2106C080E00E94340880E0A1
:100880000E943E0881E08093E707FF91EF91BF91BE
:10089000AF919F918F917F916F915F914F913F9118
:1008A0002F910F900FBE0F901F901895FC01608341
:1008B00071834283EC56FF4F10823197108233963A
:1008C0001082319710820895FC0162830895FC0123
:1008D000EB56FF4F2081319690812F5F2F7781E07B
:1008E000291301C080E008950F931F93CF93DF93E6
:1008F0001F92CDB7DEB78C0169830E9467046981BE
:100900008823B1F0F801EB56FF4F9081D801A90F71
:10091000B11D53966C939F5F9F779083D801ED91A3
:10092000FC91119793819C7F12962C91922B93832B
:100930000F90DF91CF911F910F910895FC01ED561B
:10094000FF4F20813196908181E0291301C080E022
:10095000089589569F4FFC0180810895FC01E95656
:10096000FF4F108233972081DC01A20FB11D139637
:100970008C9190819F5F9F7090830895CF93DF93B8
:10098000FC01ED56FF4F20812F5F2F70DC01AC562C
:10099000BF4F4C91EC01A881B9813C913D3029F4C5
:1009A00051E0DC01A956BF4F5C93241749F0408108
:1009B000DC01A40FB11D13963C93208381E001C09C
:1009C00080E0DF91CF910895CF93DF93FC01EA5649
:1009D000FF4F2081DC01AB56BF4F3C91EC01A88159
:1009E000B981321307C013968C9113978C7F13969D
:1009F0008C930AC02081EC01C20FD11D8B898C938E
:100A000080818F5F8F778083DF91CF910895FC0184
:100A1000848170FF02C0816001C08E7F8483608307
:100A20000895FC01848180FF04C0808190E0916082
:100A30000895808190E00895FC012081207F622B41
:100A400060830895FC012081207F622B60830895DC
:100A5000FC012181287F622B61830895FC012181A3
:100A6000287F622B61830895FC012381207120621D
:100A7000262B23830895FC01238120712062262BDD
:100A800023830895FC012181607F622B6183089597
:100A9000FC0121816073622B61830895FC01218137
:100AA000607F6095622361830895FC0121816073FA
:100AB0006095622361830895FC0126812C7F622B5F
:100AC00066830895FC0126812C7F622B668308953E
:100AD000FC012681237F622B66830895FC01268119
:100AE000237F622B66830895FC0127812C7F622B74
:100AF00067830895FC0127812C7F622B678308950B
:100B0000FC012781237F622B67830895FC012781E5
:100B1000237F622B67830895FC0127812F7C622B42
:100B200067830895FC0127812F73622B67830895E3
:100B3000FC018081807F80838CE081870895FC01A7
:100B40008081807F80838CE0818708958091F4216B
:100B50009091F52126E0969587952A95E1F70895DD
:100B60001F920F920FB60F9211248F939F93809133
:100B70006F21813079F48091440688608093440627
:100B800082E080936F2180E590E080932608909327
:100B900027082DC08230D1F48EEF91E08093260893
:100BA000909327081092070881E080935206809165
:100BB0000C08806180930C0883E0809307081092F2
:100BC00020081092210880936F2111C088E0809343
:100BD0006F2180910008807F8093000810920708A1
:100BE000809144068860809344061092D3209F91A0
:100BF0008F910F900FBE0F901F9018951F920F921C
:100C00000FB60F9211242F933F934F938F939F937F
:100C100080912808909129081092200810922108AC
:100C20009F7720916F212330A1F481559109873757
:100C3000910508F070C01092070882E08093520678
:100C400080910C08806180930C082093070884E051
:100C50007CC0243041F4895791098F34910508F004
:100C60005AC085E072C0253009F055C0853691051F
:100C700008F451C04091D3208D3D910508F448C03F
:100C80008134914008F047C04031A8F48FE090E0F3
:100C9000841B910921E030E002C0220F331F8A95A6
:100CA000E2F78091D1209091D220822B932B8093D8
:100CB000D1209093D22080EF840F8031A8F48FE16F
:100CC00090E0841B910921E030E002C0220F331F25
:100CD0008A95E2F78091CF209091D020822B932BA0
:100CE0008093CF209093D02080EE840F883080F4C2
:100CF00027E230E0241B310981E090E0022E01C0A0
:100D0000880F0A94EAF79091CE20982B9093CE20EA
:100D10004F5F4093D3208091D3208832C0F08091E0
:100D20000008807F8093000810922008109221080C
:100D30001092070881E080935206809144068860F3
:100D4000809344061092D32086E080936F219F9178
:100D50008F914F913F912F910F900FBE0F901F9049
:100D60001895FC0180916F21863059F5B091D12002
:100D70008091D220682F70E08093F621B093FB2100
:100D8000A091CF208091D020482F50E08093F72170
:100D9000A093FC218091CE2090E09B012B0F311D70
:100DA000240F351F2A0F311D33278217930731F483
:100DB0006283B3834083A18387E001C089E080938D
:100DC0006F2180916F210895A0E4B6E08C91886036
:100DD0008C9314968C911497886014968C93149726
:100DE00084E012968C931297E0E0F8E08081807F97
:100DF0008083128289E2838314828181806181836E
:100E000083E0868381E052968C93A0E8B1E082E68D
:100E100011968C93119719961C9210A211A210A6EC
:100E200011A68FEF9FEF86A397A310926F210895CD
:100E300080916F21882319F08750833058F51092E4
:100E4000CF201092D0201092D1201092D220109258
:100E5000CE201092D3201092070880914406877FFD
:100E600080934406109228081092290880E496E0A6
:100E7000809326089093270810922008109221084A
:100E800081E080936F218091000881608093000849
:100E90008BE008958AE008956F927F928F929F92DF
:100EA000AF92BF92CF92DF92EF92FF920F931F9378
:100EB000CF93DF93CDB7DEB72597CDBFDEBF8111CE
:100EC0000BC08091D420882379F0CE0101960E9436
:100ED000B1068093D42008C00E94E4060E9418073F
:100EE0008093D42061E057C08091D420873041F4B2
:100EF00089819A817B806C801092D42060E019C037
:100F0000893041F41092D420612C712C90E080E063
:100F100061E80FC0883041F41092D420612C712C0C
:100F200090E080E060E805C0612C712C90E080E0EA
:100F300061E0862E912CA82EB12CC92ED12CE72C45
:100F4000F12C062D10E01F929F931F928F931F92FA
:100F50006F9349EB52E05F934F936D830E94401073
:100F600094012A0D3B1D2C0D3D1D2E0D3F1D200F04
:100F7000311F3195219531093F932F931F926F9225
:100F80001F927F922BEA32E03F932F930E944010F2
:100F9000CDBFDEBF6D81862F2596CDBFDEBFDF9131
:100FA000CF911F910F91FF90EF90DF90CF90BF9066
:100FB000AF909F908F907F906F9008951092FD2139
:100FC000E0E6F6E080E38583818381E88283E0E8E0
:100FD000F6E08FE086838183E0E4F6E080E18583BC
:100FE0008183A0EEB7E083E016968C931697119656
:100FF0008C93A0ECB8E080E58C9311961C9280EA6B
:1010000081830895CF93DF931F92CDB7DEB790E22F
:10101000E0E6F6E09683000000007F70706320E851
:10102000829FC0011124872B69830E94A80A6981CD
:10103000862F0E94A80A80E2E0E6F6E085830000A1
:10104000000080E186830000000085830F90DF911F
:10105000CF910895882321F081E08093E5070895DA
:1010600081E08093E6070895882321F082E0809351
:101070008506089582E0809386060895882321F0EE
:1010800081E080938506089581E080938606089527
:101090008091880681709091880691FD8260089504
:1010A00098E081FF03C09093860602C09093850666
:1010B00094E082FF03C09093850602C09093860659
:1010C00083FF06C088E0809306068093010608959A
:1010D00088E0809302060895E0EEF7E082E08683E0
:1010E000858308950F931F93CF93DF9300D000D093
:1010F000CDB7DEB79091CF0197FDFCCF082F10E060
:10110000C801885B9F4F0E943B1289838091CF0169
:1011100087FDFCCFC801805C9F4F0E943B128A83F1
:101120008091CF0187FDFCCFC801885C9F4F0E9452
:101130003B128B838091CF0187FDFCCFC801805D7E
:101140009F4F0E943B128C8344E0BE016F5F7F4F34
:1011500080E00E94CD0B81E08093D520A8958091FE
:10116000680680FFFCCF80E00E94AE0B807F249653
:10117000CDBFDEBFDF91CF911F910F9108951F93D7
:10118000CF93DF93182FEB0180910020811304C0CF
:101190008091D520811105C0812F0E947208109383
:1011A00000200E94610BCE010E947D0B83E0DF9145
:1011B000CF911F9108958DEF0C94660B8BEF0C94DB
:1011C000660B8EEF0C94660BCF93DF93E0E0F6E0B6
:1011D000108287E0808B818B828B838B848B858BC5
:1011E000868B878B80E092E00E948B0AC0E0D2E081
:1011F0008981897E806189838C81887F83608C83EB
:101200008A818F7C80628A83E0E2F2E08081807E46
:101210008260808389E081838A8182608A838A8177
:1012200081608A8388818160888380E092E00E9467
:101230001D0A41E060E272E080E092E00E94580AFC
:101240008093FE2188818E7F8883DF91CF910895DE
:10125000CF92DF92EF92FF920F931F93CF93DF9382
:10126000F82EEB01809101208F1509F448C0809180
:1012700000028E7F809300028091CF0187FDFCCF1A
:101280000F2D10E0C80188599F4F0E943B12E82E95
:101290008091CF0187FDFCCFC801845A9F4F0E94E7
:1012A0003B12D82E8091CF0187FDFCCFC801805B17
:1012B0009F4F0E943B12182F80E00E945008812F00
:1012C0000E945008E0922002D092210280910302F5
:1012D0008F738093030280910002816080930002EB
:1012E00080E092E00E941D0A809120028068809335
:1012F00020028091230280FFFCCFF0920120809198
:10130000000281608093000200E014E0C12CD12C27
:1013100076018091200280688093200280912302D0
:1013200080FFFCCF6091FE2180E292E00E94030AE0
:10133000AA2797FDA095BA2FC80ED91EEA1EFB1E3C
:10134000015011090115110521F7C701B60120E06F
:1013500034E040E050E00E94A00F385F28833983DA
:1013600082E0DF91CF911F910F91FF90EF90DF907E
:10137000CF900895E0E4F6E081E082838AE1808BFB
:10138000E0E8F1E08FE6808387E08087E0E4F8E042
:1013900088E08083118212821382148210A211A22B
:1013A0000895E0E4F8E080A191A10895E0E4F8E078
:1013B00010A211A20895E0E2F3E081818F79818388
:1013C0008281867E828381E28483808185608083BE
:1013D0000895811105C0609338037093390308950F
:1013E00060933A0370933B0308950E94E4080E94BF
:1013F000DB090C94BA0921E0FC01238384819581E7
:10140000861B9109089521E0FC0123838481958145
:10141000861B910967FD9395089521E0FC012383C4
:1014200084819581089521E0FC01238384810895BE
:1014300021E0FC01238385810895FC0184811482CD
:101440009AE29A95F1F700C084830895FC018481A3
:1014500091E0948395E59A95F1F7000084830895CF
:10146000FB014423D1F024E030E080E090E061E033
:10147000408140684083438140FFFDCF63834481C6
:101480005581840F951F215031092115310581F7B0
:101490009695879596958795089580818068808335
:1014A000838180FFFDCF81E08383848195810895CE
:1014B000FB014423E1F024E030E080E090E061E0D3
:1014C000408140684083438140FFFDCF6383448176
:1014D0005581840F951F215031092115310581F760
:1014E00097FD0396959587959595879508958081A5
:1014F00080688083838180FFFDCF81E08383848146
:101500009581089592E09093CA01E82FF0E08491CC
:101510001092CA010895CF93DF93EC01C11582E0C8
:10152000D80759F480E20E94820A80930C0281E27B
:101530000E94820A80930D0208C084E20E94820AFF
:101540008C8785E20E94820A8D87DF91CF91089572
:10155000E0ECF8E083838091C20887FFFCCF8091A4
:10156000C3080895E0E0F0E020E030E0A1E2B0E15F
:101570008491982F80E02827392768E0A901440F3B
:10158000551F37FF04C09A012A273B2701C09A0143
:101590006150A1F7319640E4E030F40749F7C90102
:1015A0000895CF92DF92EF92FF920F931F93CF9304
:1015B000DF93EE24FF24C0E0D0E041E2C42E40E1FE
:1015C000D42E8091CF0187FDFCCFC7010E943B1232
:1015D000182F00E0C027D12728E0CE01880F991FDF
:1015E000D7FF04C0EC01CC25DD2501C0EC01215062
:1015F000A1F70894E11CF11C80E0E81682E0F806EF
:1016000001F7CE01DF91CF911F910F91FF90EF90E5
:10161000DF90CF900895DC0182E08093CA01E0E082
:10162000F0E084918D933196E433F105D1F7109277
:10163000CA010895DC0181E08093CA01E0E0F0E096
:1016400084918D933196E032F105D1F71092CA0161
:101650000895CF93DF939C014AEC51E088E3EA01BF
:101660008883E0E0F0E0E491D901ED93E1E0F0E07F
:10167000E491E901E983E2E0F0E0E4911196EC9372
:10168000FA011082DF91CF910895CF93DF939C01EF
:101690004AEC51E089E3EA018883E0E0F0E0E4917C
:1016A000D901ED93E1E0F0E0E491E901E983E2E0C2
:1016B000F0E0E4911196EC93FA011082DF91CF9162
:1016C00008958091680680FDFCCF0895E0ECF8E075
:1016D00090819460908390E1E0E4F6E096830000CE
:1016E00000000E94A80A80E1E0E4F6E08583E0ECD7
:1016F000F8E080818B7F80830895EF92FF920F93B3
:101700001F937C01E0ECF8E080818460808380E1BD
:10171000E0E4F6E086830000000081E00E94A80A71
:1017200080E00E94A80AF70181938F0180E00E9467
:10173000A80AF701818380E00E94A80AF80181834A
:1017400080E1E0E4F6E08583E0ECF8E080818B7FE7
:1017500080831F910F91FF90EF900895E0ECF8E0E7
:1017600090819460908390E1E0E4F6E0968300003D
:1017700000008F7080610E94A80A80E00E94A80A81
:1017800080E00E94A80A90E1E0E4F6E09583E0ECB6
:10179000F8E090819B7F90830895FF920F931F93B1
:1017A000CF93DF93F62E172F042F9091C0089460EB
:1017B0009093C00890E1E0E4F6E09683000000001A
:1017C0008F7080650E94A80A802F81500E94A80A0D
:1017D0002F2D312FC901EC0103C089910E94A80A65
:1017E0009E012F192017C8F380E1E0E4F6E085831D
:1017F0008091C0088B7F8093C008DF91CF911F91AB
:101800000F91FF9008951F93CF93DF938091C008AD
:1018100084608093C00880E1E0E4F6E08683000005
:1018200000000E94A80A8FE00E94A80A10E0C2E00F
:10183000D0E280E00E94A80A00D000D0EDB7FEB749
:101840003196ADB7BEB71196CD93DC9312978283D4
:1018500013820E942C101F5F0F900F900F900F901B
:10186000103139F78AE090E00E946210E0E4F6E07F
:1018700015838091C0088B7F8093C008DF91CF9142
:101880001F9108953BB78BBFFB0186913BBF089525
:101890003BB78BBFFB01879196913BBF089542E018
:1018A00030C041E02EC08093C00188278093C101E1
:1018B0008093C20147E015D0CB01089548E311C0E1
:1018C00049E30FC028ED2093340021E02093CC01A0
:1018D00008952091CF0127FDFCCF22272093CA0134
:1018E00008954093CA0128ED31E0209334003093ED
:1018F000CB016091C4017091C5018091C601992707
:101900000895FC014093CA0184910895CF93DF9319
:10191000CDB7DEB7C454D109CDBFDEBF309078005B
:10192000232D2F73322E809178008F63809378005F
:10193000809180008C7F816098ED94BF80938000BF
:1019400094BF83E2809380008091820080FDFCCF71
:10195000A8958FE79AE1A6E081509040A040E1F77A
:1019600000C000000E94C70141E060EA79E086ED16
:1019700090E20E945604E091D620F091D72083E0B7
:10198000858383818F7C8061838381EC8093A6092A
:1019900082E98093A709848180618483848188603F
:1019A00084838091A20085608093A20062E871E048
:1019B00086E891E00E94E10F789488E492E09F939A
:1019C0008F930E9440100E94F5090E94DE0720902C
:1019D00094000E946C080E94E4067894A8950E94E6
:1019E000B20A582E492E10926E21682F792F822D1F
:1019F0000E949E018CE690E29F938F930E942C1090
:101A000030919300209192009091910080919000EC
:101A10001F923F931F922F931F929F931F928F931A
:101A20008FE090E29F938F930E942C1080919400FE
:101A30001F928F9387E890E29F938F930E942C10C0
:101A400083E990E29F938F930E942C10CE01019620
:101A50000E940B0B8E01075F1F4F6E01BFE0CB0E84
:101A6000D11CCDBFDEBFA6EAEA2EA0E2FA2ED80135
:101A70008D918D011F928F93FF92EF920E942C10F7
:101A80000F900F900F900F900C151D0581F72C896A
:101A90009B8989891F922F931F929F931F928F93E7
:101AA0008EE990E29F938F930E942C109E898D89DE
:101AB0001F929F931F928F9381E690E29F938F9343
:101AC0000E942C10A8958DE392E09F938F930E9423
:101AD0004010BFE7E8E3F1E0B150E040F040E1F74B
:101AE00000C000000E94E108A8952FE788E391E07C
:101AF000215080409040E1F700C0000081E00E944A
:101B00007208182F1F928F9323E332E03F932F9395
:101B10000E944010A895CDBFDEBF103261F01F9229
:101B20001F938BEA90E29F938F930E942C100F904B
:101B30000F900F900F9086ED90E20E94A9048823E9
:101B400009F4FCC165EA662E61E0762E7AECC72EB8
:101B500071E0D72EE5EDAE2EE1E0BE2EF1EE8F2E38
:101B6000F1E09F2E86ED90E20E949E04882309F406
:101B7000E5C186ED90E20E94AE04833209F0FFC019
:101B800086ED90E20E949E04882361F386ED90E248
:101B90000E94AE04863731F4652D742D822D0E948B
:101BA0009E01E0CF863519F40E945803DBCF8B36B7
:101BB000C1F40E94B20A582E492E0E94D10A9927D8
:101BC0009F938F934F925F9287E292E09F938F93C0
:101BD0000E9440100F900F900F900F900F900F9059
:101BE000C1CF8B3421F50E945E0C9F938F937F931E
:101BF0006F938CE192E09F938F930E9440100E941C
:101C0000600C9F938F937F936F9383E192E09F93F8
:101C10008F930E9440100E94D10A99279F938F931F
:101C20008BE092E09F938F930E9440105AC18337BC
:101C300029F41F923F9283E092E012C0863619F495
:101C400010926E218FCF8D3619F40E946C088ACFC6
:101C5000833679F40E9448081F928F938BEF91E0AE
:101C60009F938F930E9440100F900F900F900F90B2
:101C700079CF823661F48091200A9091210A91FFF8
:101C800002C081E001C080E00E942A08F4CF8237C0
:101C900019F40E94800266CF873771F40E941D02FA
:101CA000882329F01F928F9384EF91E0D9CF8DEE96
:101CB00091E09F938F931FC18A3719F40E94D60930
:101CC00051CF8C36B1F48091A408877E8093A4080C
:101CD00008E00093410614E0109341060093460685
:101CE00000934606809148061F928F939F928F9291
:101CF00017C08C3429F58091A408877E8093A408AE
:101D000008E00093410614E0109341060093450655
:101D100000934506809148061F928F93BF92AF9221
:101D20000E9440100093410600934506109342061E
:101D3000109345068091A40888618093A40894CFED
:101D4000883739F4DF92CF920E9440100E94DB085E
:101D5000D4C0883549F4A0ECB1E0BF93AF930E94A2
:101D600040100E94DE08C9C0813609F0FBCE81E038
:101D70000E9472081F928F93A0EBB1E02FC08132B6
:101D800009F043C0CE01805C9F4F0E940503182FCD
:101D90008FEF810F8530F0F422968FAD22978F93CD
:101DA00021968FAD21978F931F921F937F926F92F1
:101DB0000E9440100F900F900F900F900F900F9077
:101DC000113079F422966EAD7FAD229780E00E94AB
:101DD0000208C8CE1F921F93AEE9B1E0BF93AF9344
:101DE00041CF123009F0BECE22966EAD7FAD229764
:101DF00081E00E9402088FEF80936E2181E00E94B3
:101E0000340881E00E943E08ADCE8F3309F078C0DF
:101E10000E94DD02182F823108F069C08C30A8F4CE
:101E2000BE016D5B7F4F0E94280921961FAE21974E
:101E300025969FAD259722969FAF229724969FAD1A
:101E4000249723969FAF23971CC0803158F482E0DB
:101E50000E945008BE01605C7F4F84EF810F0E949A
:101E6000BF080FC0803109F03FC00E94D109219600
:101E70001FAE219722969FAF229723968FAF23976D
:101E800002C0882389F121963FAD2197832F90E0EE
:101E900022966FAD2297810F911D860F911D23967B
:101EA0004FAD2397840F911DEE24FF24E81AF90A01
:101EB0001F926F931F923F931F921F93A1E9B1E06E
:101EC000BF93AF930E944010FF92EF9223968FAD85
:101ED00023971F928F93A5E8B1E0BF93AF930E9421
:101EE0004010CDBFDEBF3ECEAFE7B1E002C0A8E7F5
:101EF000B1E0BF93AF930E9440100F900F9032CE8D
:101F00008A3209F02FCE86ED90E20E949E0488234B
:101F100009F428CE86ED90E20E94AE04833711F4D6
:101F200081E009C0893619F40E94E4061BCE82378D
:101F300009F018CE80E00E944C0714CEA895FBCD86
:101F4000052E97FB1EF400940E94B70F57FD07D093
:101F50000E94BF0F07FC03D04EF40C94B70F5095AE
:101F60004095309521953F4F4F4F5F4F0895909585
:101F70008095709561957F4F8F4F9F4F0895A1E297
:101F80001A2EAA1BBB1BFD010DC0AA1FBB1FEE1FF3
:101F9000FF1FA217B307E407F50720F0A21BB30B3E
:101FA000E40BF50B661F771F881F991F1A9469F7BA
:101FB00060957095809590959B01AC01BD01CF0116
:101FC00008950F931F93CF93DF93EC018B0100973C
:101FD00031F46115710519F480E090E038C06EE0CD
:101FE00070E081E090E00E945512FC010097A1F39F
:101FF00080E883830115110571F00287138781E85A
:1020000083838091FF2190910022892B21F4E0931A
:10201000FF21F09300222097C9F0C087D1878381E8
:10202000826083838091012290910222892B71F436
:10203000E0930122F09302228091032290910422E6
:10204000892B21F4E0930322F0930422CF01DF9146
:10205000CF911F910F910895A0E0B0E0E2E3F0E18D
:102060000C947814FE01359661917191AF018091C5
:102070000122909102220E946910E2E00C949114D6
:10208000A0E0B0E0E6E4F0E10C947614FE013796AF
:102090006191719101E012E2D8018D919C91DC0176
:1020A00013962C911397286013962C93AF010E94DE
:1020B0006910D801ED91FC912381277F2383E4E00F
:1020C0000C948F1460910122709102220E94B5132A
:1020D0000895ACE0B0E0EFE6F0E10C9468147C0108
:1020E0006B018A01FC0116821782838181FFBDC1C9
:1020F000CE0101964C01F7019381F60193FD859184
:1021000093FF81916F01882309F4ABC1853239F4C3
:1021100093FD859193FF81916F01853229F4B70179
:1021200090E00E94B513E7CF512C312C20E02032F3
:10213000A0F48B3269F030F4803259F0833269F4C4
:1021400020612CC08D3239F0803339F4216026C0F3
:102150002260246023C0286021C027FD27C030ED05
:10216000380F3A3078F426FF06C0FAE05F9E300D53
:102170001124532E13C08AE0389E300D1124332EC3
:1021800020620CC08E3221F426FD6BC1206406C093
:102190008C3611F4206802C0883641F4F60193FDB4
:1021A000859193FF81916F018111C1CF982F9F7D00
:1021B0009554933028F40C5F1F4FFFE3F9830DC053
:1021C000833631F0833771F0833509F05BC022C06C
:1021D000F801808189830E5F1F4F44244394512C62
:1021E000540115C03801F2E06F0E711CF801A08097
:1021F000B18026FF03C0652D70E002C06FEF7FEF56
:10220000C5012C870E94AA132C0183012C852F77EE
:10221000222E17C03801F2E06F0E711CF801A08069
:10222000B18026FF03C0652D70E002C06FEF7FEF25
:10223000C5012C870E9498132C012C852068222E22
:10224000830123FC1BC0832D90E048165906B0F48F
:10225000B70180E290E00E94B5133A94F4CFF50103
:1022600027FC859127FE81915F01B70190E00E94D4
:10227000B51331103A94F1E04F1A5108411451044A
:1022800071F7E5C0843611F0893639F5F80127FF7A
:1022900007C060817181828193810C5F1F4F08C0EC
:1022A00060817181882777FD8095982F0E5F1F4F81
:1022B0002F76B22E97FF09C0909580957095619505
:1022C0007F4F8F4F9F4F2068B22E2AE030E0A4014D
:1022D0000E94E713A82EA81844C0853729F42F7E42
:1022E000B22E2AE030E025C0F22FF97FBF2E8F36C4
:1022F000C1F018F4883579F0B4C0803719F0883708
:1023000021F0AFC02F2F2061B22EB4FE0DC08B2D57
:102310008460B82E09C024FF0AC09F2F9660B92E92
:1023200006C028E030E005C020E130E002C020E136
:1023300032E0F801B7FE07C060817181828193812C
:102340000C5F1F4F06C06081718180E090E00E5FDE
:102350001F4FA4010E94E713A82EA818FB2DFF779A
:10236000BF2EB6FE0BC02B2D2E7FA51450F4B4FE4D
:102370000AC0B2FC08C02B2D2E7E05C07A2C2B2D56
:1023800003C07A2C01C0752C24FF0DC0FE01EA0D9C
:10239000F11D8081803311F4297E09C022FF06C01F
:1023A0007394739404C0822F867809F0739423FD8C
:1023B00013C020FF06C05A2C731418F4530C57187E
:1023C000732C731468F4B70180E290E02C870E94AC
:1023D000B51373942C85F5CF731410F4371801C01E
:1023E000312C24FF12C0B70180E390E02C870E94BB
:1023F000B5132C8522FF17C021FF03C088E590E0AC
:1024000002C088E790E0B7010CC0822F867859F0AF
:1024100021FD02C080E201C08BE227FD8DE2B70101
:1024200090E00E94B513A51438F4B70180E390E062
:102430000E94B5135A94F7CFAA94F401EA0DF11D46
:102440008081B70190E00E94B513A110F5CF332031
:1024500009F451CEB70180E290E00E94B5133A949E
:10246000F6CFF7018681978102C08FEF9FEF2C9600
:10247000E2E10C94811403D0808199270895E0EC67
:10248000F1E0378537FDFDCF348538603487FC01B6
:10249000E050F04F08950E943F128081918108958D
:1024A0000E944514272F0C9446140F931F93CF932B
:1024B000DF93869F8001879F100D969F100D11243A
:1024C000C8010E947112EC01009729F0A80160E098
:1024D00070E00E94A313CE01DF91CF911F910F9165
:1024E0000895CF93DF938230910510F482E090E05D
:1024F000E0910722F091082220E030E0A0E0B0E077
:10250000309739F14081518148175907B8F0481781
:10251000590771F482819381109729F012968D9357
:102520009C9313972CC0809307229093082227C076
:102530002115310531F04217530718F0A901DB01CD
:1025400001C0EF019A01BD01DF010280F381E02D9E
:10255000D7CF21153105F9F0281B390B243031056F
:1025600080F48A819B816115710521F0FB018283D2
:10257000938304C08093072290930822FE01329631
:1025800044C0FE01E20FF31F819391932250310961
:10259000288339833AC02091052230910622232BCB
:1025A00041F420910B2030910C2020930522309390
:1025B00006222091092030910A202115310541F48D
:1025C0002DB73EB740910D2050910E20241B350BA6
:1025D000E0910522F0910622E217F307A0F42E1BEA
:1025E0003F0B2817390778F0AC014E5F5F4F241777
:1025F000350748F04E0F5F1F409305225093062287
:102600008193919302C0E0E0F0E0CF01DF91CF91A0
:102610000895CF93DF93009709F487C0FC013297A8
:1026200012821382C0910722D0910822209781F450
:1026300020813181280F391F809105229091062237
:102640008217930779F5E0930522F09306226DC077
:10265000DE0120E030E0AE17BF0750F412964D9136
:102660005C9113979D014115510509F1DA01F3CFF2
:10267000A283B38340815181840F951F8A179B07E2
:1026800071F48D919C911197840F951F0296808310
:10269000918312968D919C91139782839383211538
:1026A000310529F4E0930722F09308223EC0D901B6
:1026B0001296ED93FC9313974D915D91A40FB51F66
:1026C000EA17FB0779F480819181840F951F0296A8
:1026D000D9018D939C9311978281938112968D934A
:1026E0009C931397E0E0F0E08A819B81009719F0BA
:1026F000FE01EC01F9CFCE01029628813981820FCB
:10270000931F20910522309106222817390769F47A
:10271000309729F4109207221092082202C01282E8
:102720001382C0930522D0930622DF91CF910895A2
:10273000FC010590615070400110D8F7809590958C
:102740008E0F9F1F0895DC0101C06D9341505040D2
:10275000E0F70895FC016150704001900110D8F736
:10276000809590958E0F9F1F08950F931F93CF9381
:10277000DF93182F092FEB018B8181FD03C08FEFB1
:102780009FEF20C082FF10C04E815F812C813D8170
:10279000421753077CF4E881F9819F012F5F3F4F77
:1027A00028833983108306C0E885F985812F099530
:1027B000892B29F72E813F812F5F3F4F2E833F8347
:1027C000812F902FDF91CF911F910F910895FA01E2
:1027D000AA27283051F1203181F1E8946F936E7F60
:1027E0006E5F7F4F8F4F9F4FAF4FB1E03ED0B4E051
:1027F0003CD0670F781F891F9A1FA11D680F791F92
:102800008A1F911DA11D6A0F711D811D911DA11DA2
:1028100020D009F468943F912AE0269F11243019B2
:10282000305D3193DEF6CF010895462F4770405D4D
:102830004193B3E00FD0C9F7F6CF462F4F70405DFC
:102840004A3318F0495D31FD4052419302D0A9F757
:10285000EACFB4E0A6959795879577956795BA9551
:10286000C9F700976105710508959B01AC010A2E17
:1028700006945795479537952795BA95C9F7620FEE
:10288000731F841F951FA01D0895262FE0ECF1E013
:10289000378537FDFDCF3485377F3487378531FF66
:1028A00009C036E3328738ED34BF31E033873785EE
:1028B00037FDFDCF33E332878083918312822483F7
:1028C00025E3228728ED31E024BF33870196089560
:1028D0002F923F924F925F926F927F928F929F9230
:1028E000AF92BF92CF92DF92EF92FF920F931F931E
:1028F000CF93DF93CDB7DEB7CA1BDB0BCDBFDEBFF7
:1029000009942A88398848885F846E847D848C8401
:102910009B84AA84B984C884DF80EE80FD800C810A
:102920001B81AA81B981CE0FD11DCDBFDEBFED01C4
:062930000895F894FFCFAA
:10293600FFFF253032782C200000000922200043BA
:1029460050552049443A20253032782530327825B2
:10295600303278205265763A20253032780A0D00DA
:102966005549443A20253032780A0D00556E697172
:1029760075652049443A20000A0D57616665722044
:102986003A253032782025303278253032782C209E
:102996000025303278253032780A0D00436F6D708D
:1029A600696C656420776974682064656275672060
:1029B600636F64650A0D00555345524944202578D6
:1029C6000A0D00554E4951452049443A200025300C
:1029D60032782530327825303278005761726E6948
:1029E6006E6721204144432056657273696F6E20DD
:0E29F600627974652069732025640A0D000063
:00000001FF
